:0300000007fffff8
:0300010007ff6195
:0300020007fd8770
:0300030007fa7287
:0300040007f622da
:0300050007f09869
:0300060007e9d433
:0300070007e1d836
:0300080007d8a571
:0300090007ce3ce3
:03000a0007c29f8b
:03000b0007b5cf67
:03000c0007a7cf74
:03000d000798a1b0
:03000e0007884719
:03000f000776c4ad
:0300100007641a68
:0300110007504c49
:03001200073b5e4b
:030013000725526c
:03001400070e2ca8
:0300150006f5effe
:0300160006dca065
:0300170006c242dc
:0300180006a6d960
:03001900068a69eb
:03001a00066cf77a
:03001b00064e8806
:03001c00062f1f8d
:03001d00060ec309
:03001e0005ed7776
:03001f0005cb41cd
:0300200005a82709
:0300210005842d26
:03002200055f5a1d
:030023000539b2ea
:0300240005133c85
:0300250004ebfeeb
:0300260004c3fd13
:03002700049b41f6
:030028000471ce92
:030029000447acdd
:03002a00041ce1d2
:03002b0003f1746a
:03002c0003c56b9e
:03002d000398cd68
:03002e00036ba2bf
:03002f00033def9f
:03003000030fbcff
:0300310002e110d9
:0300320002b1f325
:0300330002826bdb
:03003400025280f5
:0300350002223a6a
:0300360001f19f36
:0300370001c0b84d
:03003800018f8baa
:03003900015e2144
:03003a00012c8115
:03003b0000fab216
:03003c0000c8bd3c
:03003d000096a981
:03003e0000647edd
:03003f0000324349
:03004000000000bd
:00000001FF
