:03000000000000fd
:030001000fcdbd63
:030002000f9b82cf
:030003000f69572b
:030004000f374370
:030005000f054e96
:030006000ed37f97
:030007000ea1df68
:030008000e707502
:030009000e3f485f
:03000a000e0e6176
:03000b000dddc642
:03000c000dad80b7
:03000d000d7d95d1
:03000e000d4e0d87
:03000f000d1ef0d3
:030010000cf044ad
:030011000cc2110d
:030012000c945eed
:030013000c673344
:030014000c3a950e
:030015000c0e8c42
:030016000be31fda
:030017000bb854cf
:030018000b8e321a
:030019000b64bfb6
:03001a000b3c0399
:03001b000b1402c1
:03001c000aecc427
:03001d000ac64ec2
:03001e000aa0a68f
:03001f000a7bd386
:030020000a57d9a3
:030021000a34bfdf
:030022000a128936
:0300230009f13da3
:0300240009d0e11f
:0300250009b178a6
:0300260009930932
:03002700097597c1
:030028000959274c
:03002900093dbed0
:03002a0009236047
:03002b00090a11ae
:03002c0008f1d404
:03002d0008daae40
:03002e0008c4a261
:03002f0008afb463
:03003000089be644
:0300310008893cff
:030032000877b993
:0300330008675ffc
:0300340008583138
:03003500084a3145
:03003600083d6121
:030037000831c4c9
:0300380008275b3b
:03003900081e2876
:03003a0008162c79
:03003b00080f6843
:03003c000809ded2
:03003d0008058e25
:03003e000802793c
:03003f0008009f17
:03004000000000bd
:00000001FF
